:100000000C942A000C9434000C9434000C943400AA
:100010000C9434000C9434000C9434000C94340090
:100020000C9434000C9434000C9434000C94340080
:100030000C9434000C9434000C9434000C94340070
:100040000C9434000C9434000C9434000C94340060
:100050000C94340011241FBECFE5D8E0DEBFCDBF25
:100060000E9436000C9462000C94000012BA80E8E2
:1000700081BB12BC8CE685BD14BC13BC19BE0CC080
:1000800083B58F5F83BD2FE986E891E021508040E2
:100090009040E1F700C0000083B58F3F89F783B53A
:1000A0008823D1F383B5815083BD2FE986E891E0A1
:1000B000215080409040E1F700C0000083B58111DD
:0800C000F1CFEACFF894FFCF65
:00000001FF
